:100000000C942A000C9434000C9434000C943400AA
:100010000C9434000C9434000C9434000C94340090
:100020000C9434000C9434000C9434000C94340080
:100030000C9434000C9434000C9434000C94340070
:100040000C9434000C9434000C9434000C94340060
:100050000C94340011241FBECFE5D8E0DEBFCDBF25
:100060000E9471000C9488000C940000413069F4E7
:10007000E82FF0E0218181E090E002C0880F991F15
:100080006A95E2F7822B81830895E82FF0E02181C1
:1000900081E090E002C0880F991F6A95E2F7809591
:1000A000822381830895E82FF0E0208181E090E0B1
:1000B00002C0880F991F6A95E2F7822311F081E050
:1000C000089580E0089589E189B910BC8AB18861FA
:1000D0008AB980B5866080BD08955D9BFECF8CB9DE
:1000E000089540E060E086E30E9436000E946300CD
:1000F00060E086E30E9453008111FACF81E30E9401
:100100006D0060E086E30E9453008823D1F3F0CFB6
:04011000F894FFCF91
:00000001FF
